{
  "contractName": "DappBox",
  "abi": [
    {
      "inputs": [],
      "payable": false,
      "stateMutability": "nonpayable",
      "type": "constructor"
    },
    {
      "anonymous": false,
      "inputs": [
        {
          "indexed": false,
          "internalType": "uint256",
          "name": "fID",
          "type": "uint256"
        },
        {
          "indexed": false,
          "internalType": "string",
          "name": "fPerm",
          "type": "string"
        },
        {
          "indexed": false,
          "internalType": "string",
          "name": "fHash",
          "type": "string"
        },
        {
          "indexed": false,
          "internalType": "string",
          "name": "fName",
          "type": "string"
        },
        {
          "indexed": false,
          "internalType": "string",
          "name": "fDesc",
          "type": "string"
        },
        {
          "indexed": false,
          "internalType": "string",
          "name": "fType",
          "type": "string"
        },
        {
          "indexed": false,
          "internalType": "uint256",
          "name": "fSize",
          "type": "uint256"
        },
        {
          "indexed": false,
          "internalType": "address payable",
          "name": "uAddr",
          "type": "address"
        },
        {
          "indexed": false,
          "internalType": "uint256",
          "name": "uTime",
          "type": "uint256"
        }
      ],
      "name": "UploadFile",
      "type": "event"
    },
    {
      "constant": true,
      "inputs": [],
      "name": "fCount",
      "outputs": [
        {
          "internalType": "uint256",
          "name": "",
          "type": "uint256"
        }
      ],
      "payable": false,
      "stateMutability": "view",
      "type": "function"
    },
    {
      "constant": true,
      "inputs": [
        {
          "internalType": "uint256",
          "name": "",
          "type": "uint256"
        }
      ],
      "name": "files",
      "outputs": [
        {
          "internalType": "uint256",
          "name": "fID",
          "type": "uint256"
        },
        {
          "internalType": "string",
          "name": "fPerm",
          "type": "string"
        },
        {
          "internalType": "string",
          "name": "fHash",
          "type": "string"
        },
        {
          "internalType": "string",
          "name": "fName",
          "type": "string"
        },
        {
          "internalType": "string",
          "name": "fDesc",
          "type": "string"
        },
        {
          "internalType": "string",
          "name": "fType",
          "type": "string"
        },
        {
          "internalType": "uint256",
          "name": "fSize",
          "type": "uint256"
        },
        {
          "internalType": "address payable",
          "name": "uAddr",
          "type": "address"
        },
        {
          "internalType": "uint256",
          "name": "uTime",
          "type": "uint256"
        }
      ],
      "payable": false,
      "stateMutability": "view",
      "type": "function"
    },
    {
      "constant": true,
      "inputs": [],
      "name": "name",
      "outputs": [
        {
          "internalType": "string",
          "name": "",
          "type": "string"
        }
      ],
      "payable": false,
      "stateMutability": "view",
      "type": "function"
    },
    {
      "constant": false,
      "inputs": [
        {
          "internalType": "string",
          "name": "fPerm",
          "type": "string"
        },
        {
          "internalType": "string",
          "name": "fHash",
          "type": "string"
        },
        {
          "internalType": "string",
          "name": "fName",
          "type": "string"
        },
        {
          "internalType": "string",
          "name": "fDesc",
          "type": "string"
        },
        {
          "internalType": "string",
          "name": "fType",
          "type": "string"
        },
        {
          "internalType": "uint256",
          "name": "fSize",
          "type": "uint256"
        }
      ],
      "name": "upload",
      "outputs": [],
      "payable": false,
      "stateMutability": "nonpayable",
      "type": "function"
    }
  ],
  "bytecode": "0x60806040526040518060400160405280600781526020017f44617070426f78000000000000000000000000000000000000000000000000008152506000908051906020019061004f929190610067565b50600060015534801561006157600080fd5b5061010c565b828054600181600116156101000203166002900490600052602060002090601f016020900481019282601f106100a857805160ff19168380011785556100d6565b828001600101855582156100d6579182015b828111156100d55782518255916020019190600101906100ba565b5b5090506100e391906100e7565b5090565b61010991905b808211156101055760008160009055506001016100ed565b5090565b90565b611042806200011c6000396000f3fe608060405234801561001057600080fd5b506004361061004c5760003560e01c806305f01b8e1461005157806306fdde031461006f57806384f55e7a146100f2578063f4c714b414610413575b600080fd5b6100596106b2565b6040518082815260200191505060405180910390f35b6100776106b8565b6040518080602001828103825283818151815260200191508051906020019080838360005b838110156100b757808201518184015260208101905061009c565b50505050905090810190601f1680156100e45780820380516001836020036101000a031916815260200191505b509250505060405180910390f35b610411600480360360c081101561010857600080fd5b810190808035906020019064010000000081111561012557600080fd5b82018360208201111561013757600080fd5b8035906020019184600183028401116401000000008311171561015957600080fd5b91908080601f016020809104026020016040519081016040528093929190818152602001838380828437600081840152601f19601f820116905080830192505050505050509192919290803590602001906401000000008111156101bc57600080fd5b8201836020820111156101ce57600080fd5b803590602001918460018302840111640100000000831117156101f057600080fd5b91908080601f016020809104026020016040519081016040528093929190818152602001838380828437600081840152601f19601f8201169050808301925050505050505091929192908035906020019064010000000081111561025357600080fd5b82018360208201111561026557600080fd5b8035906020019184600183028401116401000000008311171561028757600080fd5b91908080601f016020809104026020016040519081016040528093929190818152602001838380828437600081840152601f19601f820116905080830192505050505050509192919290803590602001906401000000008111156102ea57600080fd5b8201836020820111156102fc57600080fd5b8035906020019184600183028401116401000000008311171561031e57600080fd5b91908080601f016020809104026020016040519081016040528093929190818152602001838380828437600081840152601f19601f8201169050808301925050505050505091929192908035906020019064010000000081111561038157600080fd5b82018360208201111561039357600080fd5b803590602001918460018302840111640100000000831117156103b557600080fd5b91908080601f016020809104026020016040519081016040528093929190818152602001838380828437600081840152601f19601f82011690508083019250505050505050919291929080359060200190929190505050610756565b005b61043f6004803603602081101561042957600080fd5b8101908080359060200190929190505050610c02565b604051808a815260200180602001806020018060200180602001806020018981526020018873ffffffffffffffffffffffffffffffffffffffff1673ffffffffffffffffffffffffffffffffffffffff16815260200187815260200186810386528e818151815260200191508051906020019080838360005b838110156104d35780820151818401526020810190506104b8565b50505050905090810190601f1680156105005780820380516001836020036101000a031916815260200191505b5086810385528d818151815260200191508051906020019080838360005b8381101561053957808201518184015260208101905061051e565b50505050905090810190601f1680156105665780820380516001836020036101000a031916815260200191505b5086810384528c818151815260200191508051906020019080838360005b8381101561059f578082015181840152602081019050610584565b50505050905090810190601f1680156105cc5780820380516001836020036101000a031916815260200191505b5086810383528b818151815260200191508051906020019080838360005b838110156106055780820151818401526020810190506105ea565b50505050905090810190601f1680156106325780820380516001836020036101000a031916815260200191505b5086810382528a818151815260200191508051906020019080838360005b8381101561066b578082015181840152602081019050610650565b50505050905090810190601f1680156106985780820380516001836020036101000a031916815260200191505b509e50505050505050505050505050505060405180910390f35b60015481565b60008054600181600116156101000203166002900480601f01602080910402602001604051908101604052809291908181526020018280546001816001161561010002031660029004801561074e5780601f106107235761010080835404028352916020019161074e565b820191906000526020600020905b81548152906001019060200180831161073157829003601f168201915b505050505081565b600086511161076457600080fd5b600085511161077257600080fd5b600084511161078057600080fd5b600083511161078e57600080fd5b600082511161079c57600080fd5b600081116107a957600080fd5b600073ffffffffffffffffffffffffffffffffffffffff163373ffffffffffffffffffffffffffffffffffffffff1614156107e357600080fd5b60016000815480929190600101919050555060405180610120016040528060015481526020018781526020018681526020018581526020018481526020018381526020018281526020013373ffffffffffffffffffffffffffffffffffffffff16815260200142815250600260006001548152602001908152602001600020600082015181600001556020820151816001019080519060200190610888929190610f68565b5060408201518160020190805190602001906108a5929190610f68565b5060608201518160030190805190602001906108c2929190610f68565b5060808201518160040190805190602001906108df929190610f68565b5060a08201518160050190805190602001906108fc929190610f68565b5060c0820151816006015560e08201518160070160006101000a81548173ffffffffffffffffffffffffffffffffffffffff021916908373ffffffffffffffffffffffffffffffffffffffff16021790555061010082015181600801559050507f4164f1fa126c266ab67a14a5982ace9b9f4873efe42699924650d9f10df0452b6001548787878787873342604051808a815260200180602001806020018060200180602001806020018981526020018873ffffffffffffffffffffffffffffffffffffffff1673ffffffffffffffffffffffffffffffffffffffff16815260200187815260200186810386528e818151815260200191508051906020019080838360005b83811015610a1c578082015181840152602081019050610a01565b50505050905090810190601f168015610a495780820380516001836020036101000a031916815260200191505b5086810385528d818151815260200191508051906020019080838360005b83811015610a82578082015181840152602081019050610a67565b50505050905090810190601f168015610aaf5780820380516001836020036101000a031916815260200191505b5086810384528c818151815260200191508051906020019080838360005b83811015610ae8578082015181840152602081019050610acd565b50505050905090810190601f168015610b155780820380516001836020036101000a031916815260200191505b5086810383528b818151815260200191508051906020019080838360005b83811015610b4e578082015181840152602081019050610b33565b50505050905090810190601f168015610b7b5780820380516001836020036101000a031916815260200191505b5086810382528a818151815260200191508051906020019080838360005b83811015610bb4578082015181840152602081019050610b99565b50505050905090810190601f168015610be15780820380516001836020036101000a031916815260200191505b509e50505050505050505050505050505060405180910390a1505050505050565b6002602052806000526040600020600091509050806000015490806001018054600181600116156101000203166002900480601f016020809104026020016040519081016040528092919081815260200182805460018160011615610100020316600290048015610cb45780601f10610c8957610100808354040283529160200191610cb4565b820191906000526020600020905b815481529060010190602001808311610c9757829003601f168201915b505050505090806002018054600181600116156101000203166002900480601f016020809104026020016040519081016040528092919081815260200182805460018160011615610100020316600290048015610d525780601f10610d2757610100808354040283529160200191610d52565b820191906000526020600020905b815481529060010190602001808311610d3557829003601f168201915b505050505090806003018054600181600116156101000203166002900480601f016020809104026020016040519081016040528092919081815260200182805460018160011615610100020316600290048015610df05780601f10610dc557610100808354040283529160200191610df0565b820191906000526020600020905b815481529060010190602001808311610dd357829003601f168201915b505050505090806004018054600181600116156101000203166002900480601f016020809104026020016040519081016040528092919081815260200182805460018160011615610100020316600290048015610e8e5780601f10610e6357610100808354040283529160200191610e8e565b820191906000526020600020905b815481529060010190602001808311610e7157829003601f168201915b505050505090806005018054600181600116156101000203166002900480601f016020809104026020016040519081016040528092919081815260200182805460018160011615610100020316600290048015610f2c5780601f10610f0157610100808354040283529160200191610f2c565b820191906000526020600020905b815481529060010190602001808311610f0f57829003601f168201915b5050505050908060060154908060070160009054906101000a900473ffffffffffffffffffffffffffffffffffffffff16908060080154905089565b828054600181600116156101000203166002900490600052602060002090601f016020900481019282601f10610fa957805160ff1916838001178555610fd7565b82800160010185558215610fd7579182015b82811115610fd6578251825591602001919060010190610fbb565b5b509050610fe49190610fe8565b5090565b61100a91905b80821115611006576000816000905550600101610fee565b5090565b9056fea265627a7a723158203b56e140315045f8f4cccd194e9675ccefa02dbe473a0fea4327b74f6eba533c64736f6c63430005100032",
  "source": "pragma solidity ^0.5.0;\n\n// This smart contract will serve to store hashes for \n// uploaded files on IPFS.\n\ncontract DappBox{\n  // Smart contract name\n  string public name = \"DappBox\";\n\n  // Create counter cache to keep track of file IDs\n  uint public fCount = 0;\n\n  // Mapping is a reference type that acts as a hash table for \n  // key-value pairs. The key will be an unsigned integer uint,\n  // and the value is File, a data type we will define ourselves\n  // using a Struct.\n  mapping(uint => File) public files;\n\n  // Struct for defining the File data type, with relevant attributes\n  struct File{\n    uint fID; // key\n    string fPerm; // file permission\n    string fHash; // unique hash for locating file on IPFS\n    string fName; // name of file\n    string fDesc; // decription of file\n    string fType; // file type\n    uint fSize; // size of file\n    address payable uAddr; // address of user who uploaded file\n    uint uTime; // time of upload\n  }\n\n  // Define event to know when new files are uploaded\n  event UploadFile(\n    uint fID,\n    string fPerm,\n    string fHash,\n    string fName,\n    string fDesc,\n    string fType,\n    uint fSize,\n    address payable uAddr,\n    uint uTime\n  );\n\n  // Constructor instance of smart contract\n  constructor() public{\n  }\n\n  // Function for uploading files, with file attributes as parameters\n  function upload(string memory fPerm, string memory fHash, string memory fName, string memory fDesc, string memory fType, uint fSize) public{\n\n    // require function is used to check if stipulations are satisfied\n    // to ensure an authentic transaction. In each of these cases,\n    // confirm the file attributes exist\n    require(bytes(fPerm).length > 0);\n    require(bytes(fHash).length > 0);\n    require(bytes(fName).length > 0);\n    require(bytes(fDesc).length > 0);\n    require(bytes(fType).length > 0);\n    require(fSize > 0);\n    require(msg.sender != address(0));\n\n    // Increment file ID by 1\n    fCount++;\n\n    // Create new File\n    // msg. sender fetches us the uploader's address\n    // now returns the current time\n    files[fCount] = File(fCount, fPerm, fHash, fName, fDesc, fType, fSize, msg.sender, now);\n\n    // Trigger event\n    emit UploadFile(fCount, fPerm, fHash, fName, fDesc, fType, fSize, msg.sender, now);\n  }\n\n}",
  "sourcePath": "/Users/johntomici/DappBox/src/contracts/DappBox.sol",
  "compiler": {
    "name": "solc",
    "version": "0.5.16+commit.9c3226ce.Emscripten.clang"
  },
  "schemaVersion": "3.4.3",
  "updatedAt": "2021-12-10T06:15:20.462Z",
  "networkType": "ethereum",
  "devdoc": {
    "methods": {}
  },
  "userdoc": {
    "methods": {}
  }
}